:100000000C943A000C944C000C944C000C944C0052
:100010000C944C000C944C000C944C000C944C0030
:100020000C944C000C944C000C944C000C944C0020
:100030000C944C000C944C000C944C000C944C0010
:100040000C944C000C944C000C944C000C944C0000
:100050000C944C0065011B01200125012A012F0190
:10006000340139013E01430148014D01520156015D
:100070005B01600111241FBECFE5D8E0DEBFCDBF1C
:1000800020E0A0E6B0E001C01D92A036B207E1F783
:100090000E944E000C94E5010C94000060E875E2AB
:1000A00080E090E00E947F0180E00E94DE008F3FB0
:1000B000D9F30E94B9012FE78AE196E021508040F0
:1000C0009040E1F700C00000EFCF8130D1F028F080
:1000D000823059F18330E9F14FC029B381E090E0DB
:1000E000062E02C0880F991F0A94E2F730E02823F9
:1000F0003923C90102C0959587956A95E2F7282FA3
:100100003BC026B341E050E0062E02C0440F551F0D
:100110000A94E2F730E024233523C90102C0959503
:1001200087956A95E2F7282F27C023B341E050E076
:10013000062E02C0440F551F0A94E2F730E0242334
:100140003523C90102C0959587956A95E2F7282F56
:1001500013C020B341E050E0062E02C0440F551FEB
:100160000A94E2F730E024233523C90102C09595B3
:1001700087956A95E2F7282F822F0895813041F004
:1001800028F0823039F0833039F008956ABB089541
:1001900067BB089564BB089561BB0895813041F049
:1001A00028F0823039F0833039F008956BBB089520
:1001B00068BB089565BB089562BB0895AF92BF9276
:1001C000CF92DF92EF92FF920F931F93CF93DF9323
:1001D000D82EC0E0D0E0BB24BA946894EE24E4F8B2
:1001E000F12CC12CA12C87010C2E02C0000F111F75
:1001F0000A94E2F7602F8D2D0E94BE00602F60955B
:100200008D2D0E94CE001C2D612F8D2D0E9465002A
:10021000811160C0110F110F4C2F4F5F410F50E043
:10022000FA013197E031F10520F4E65DFF4F0C94BF
:10023000DF01BA2C53C00F2EF8E3BF2EF02D4EC0B5
:100240000F2EF9E3BF2EF02D49C00F2EFFE2BF2E77
:10025000F02D44C00F2EF4E3BF2EF02D3FC00F2E23
:10026000F5E3BF2EF02D3AC00F2EF6E3BF2EF02D92
:1002700035C00F2EFAE2BF2EF02D30C00F2EF1E365
:10028000BF2EF02D2BC00F2EF2E3BF2EF02D26C077
:100290000F2EF3E3BF2EF02D21C00F2EFDE2BF2E57
:1002A000F02D1CC06894BB24B5F818C00F2EF0E3E5
:1002B000BF2EF02D13C00F2EFDE3BF2EF02D0EC06C
:1002C0000F2EFBE2BF2EF02D09C00F2EF7E3BF2E3D
:1002D000F02D04C01F5F143009F096CF2196C43072
:1002E000D10509F080CF8B2DDF91CF911F910F9118
:1002F000FF90EF90DF90CF90BF90AF90089520B522
:100300002F7720BD20B52F7720BDDC01CB01880FD2
:10031000991FAA1FBB1F880F991FAA1FBB1F9C01F3
:10032000AD01220F331F441F551F220F331F441FDF
:10033000551F60E072E18AE790E00E94BD01215004
:10034000310980B5826080BD80B5846080BD5298DF
:1003500080B58F7E80BD80B58F7D80BD80B5886083
:1003600080BD539A549A80B5806880BD30BD29B94C
:1003700008955D9BFECF8CB90895A1E21A2EAA1BA9
:10038000BB1BFD010DC0AA1FBB1FEE1FFF1FA21745
:10039000B307E407F50720F0A21BB30BE40BF50B42
:1003A000661F771F881F991F1A9469F760957095CB
:1003B000809590959B01AC01BD01CF010895EE0F92
:0E03C000FF1F0590F491E02D0994F894FFCFF3
:00000001FF
