:100000000C9459000C9481000C9481000C94810094
:100010000C9481000C9481000C9481000C9481005C
:100020000C9481000C9481000C9481000C9481004C
:100030000C9481000C9481000C9481000C9481003C
:100040000C94E8030C9481000C94B6030C94900378
:100050000C9481000C9481000C9481000C9481001C
:100060000C9432040C94810000000000250028004C
:100070002B00040404040404040402020202020229
:10008000030303030303010204081020408001025C
:1000900004081020010204081020000000080002DB
:1000A00001000003040700000000000000006005DC
:1000B0005C0711241FBECFEFD8E0DEBFCDBF22E02A
:1000C000A8E3B1E001C01D92A439B207E1F711E045
:1000D000A0E0B1E0E0E7F3E102C005900D92A833A3
:1000E000B107D9F710E0C8E5D0E004C02197FE01C0
:1000F0000E949907C735D107C9F70E940B060C94D7
:10010000AB090C94000090E0FC01E656FF4F2491EF
:10011000FC01EA57FF4F3491FC01EE58FF4FE49188
:10012000EE23B1F1222339F1233091F038F421305C
:10013000A9F0223001F584B58F7D12C0273091F0EF
:100140002830A1F02430B9F4809180008F7D03C065
:10015000809180008F77809380000DC084B58F7769
:1001600084BD09C08091B0008F7703C08091B0003A
:100170008F7D8093B000F0E0EE0FFF1FE859FF4F36
:10018000A591B4918FB7F894EC913E2B3C938FBF1F
:100190000895CF92DF92EF92FF920F931F93CF9328
:1001A000DF936C017A018B01C0E0D0E0CE15DF0552
:1001B00089F0D8016D918D01D601ED91FC910190EE
:1001C000F081E02DC6010995892B11F47E0102C052
:1001D0002196ECCFC701DF91CF911F910F91FF9036
:1001E000EF90DF90CF900895FC01538D448D252F23
:1001F00030E0842F90E0821B930B541710F0CF96C1
:10020000089501970895FC01918D828D981761F0F2
:10021000828DDF01A80FB11D5D968C91928D9F5F3D
:100220009F73928F90E008958FEF9FEF0895FC01E8
:10023000918D828D981731F0828DE80FF11D858D9B
:1002400090E008958FEF9FEF0895FC01918D228D2E
:10025000892F90E0805C9F4F821B91098F739927B3
:10026000089585ED91E00E94250121E0892B09F494
:1002700020E0822F0895FC01848DDF01A80FB11DBD
:10028000A35ABF4F2C91848D90E001968F739927CC
:10029000848FA689B7892C93A089B1898C918064B9
:1002A0008C93938D848D981306C00288F389E02D7A
:1002B00080818F7D80830895EF92FF920F931F932B
:1002C000CF93DF93EC0181E0888F9B8D8C8D981309
:1002D00005C0E889F989808185FD24C0F62E0B8D43
:1002E00010E00F5F1F4F0F731127E02E8C8DE81267
:1002F0000CC00FB607FCFACFE889F989808185FF29
:10030000F5CFCE010E943B01F1CF8B8DFE01E80FAE
:10031000F11DE35AFF4FF0820B8FEA89FB89808140
:10032000806207C0EE89FF896083E889F98980814E
:100330008064808381E090E0DF91CF911F910F91E5
:10034000FF90EF900895CF93DF93EC01888D882381
:10035000C9F0EA89FB89808185FD05C0A889B98932
:100360008C9186FD0FC00FB607FCF5CF808185FF0D
:10037000F2CFA889B9898C9185FFEDCFCE010E947B
:100380003B01E7CFDF91CF91089580E090E0892B8A
:1003900029F00E94310181110C94000008953FB7AB
:1003A000F8948091CA019091CB01A091CC01B091B9
:1003B000CD0126B5A89B05C02F3F19F00196A11DC0
:1003C000B11D3FBFBA2FA92F982F8827820F911DEB
:1003D000A11DB11DBC01CD0142E0660F771F881F32
:1003E000991F4A95D1F708958F929F92AF92BF922D
:1003F000CF92DF92EF92FF926B017C010E94CF01BE
:100400004B015C01C114D104E104F104F1F00E943C
:10041000CF01DC01CB0188199909AA09BB09883EE3
:100420009340A105B10570F321E0C21AD108E1089B
:10043000F10888EE880E83E0981EA11CB11CC1143F
:10044000D104E104F10419F7DDCFFF90EF90DF90C4
:10045000CF90BF90AF909F908F90089585ED80933F
:10046000BC008091BC0084FDFCCF1092D0010895A7
:1004700040915A01262F30E0240F311D21323105E1
:10048000DCF42091D0012430C9F4FC0180E090E03C
:10049000861758F430915A012191DC01A85CBE4FB7
:1004A000A30FB11D2C930196F3CF80915A01680FD1
:1004B00060935A0180E0089581E0089582E00895F4
:1004C000089581E090E03091D4012091D30132175A
:1004D00010F480E090E091958195910908958091C4
:1004E000D4019091D301891730F48F5F8093D401A8
:1004F00080E090E008958FEF9FEF08958091D30101
:1005000090E02091D401821B91090895CF92DF924F
:10051000EF92FF920F931F93CF93DF937C01262FCF
:10052000972F8A018091A301882391F0C62FD72F9E
:100530006E01C40ED51ECC15DD0571F06991D70191
:10054000ED91FC910190F081E02DC7010995F3CF69
:10055000642F822F0E943802C801DF91CF911F9132
:100560000F91FF90EF90DF90CF900895CF93DF939E
:100570001F92CDB7DEB769832091A3012223D1F06A
:100580002091D101203240F021E030E0FC013383A2
:10059000228380E090E015C08091D201E82FF0E046
:1005A000EC55FE4F998190838F5F8093D2018093A9
:1005B000D10105C061E0CE0101960E94380281E0C0
:1005C00090E00F90DF91CF910895CF93FC01C4810B
:1005D00021E02093A301C093C4011092D201109294
:1005E000D1018385682B82E792E00E94B602809158
:1005F000D101813208F046C09091D0019111FCCF19
:1006000092E09093D00191E09093CF019FEF90936F
:10061000A2011092A1018093A001A4EAB1E020E818
:1006200031E0F9019E2F921B981718F49D91919338
:10063000F9CF10927F0180917F01CC0FC82BC0931E
:100640007F018091CE01813061F41092CE018091C2
:100650007F018093BB008091BC0083FDF8CF85ECC7
:1006600001C085EE8093BC008091D0018230E1F31F
:100670008091A2018F3F31F08091A201803211F070
:100680008091A2011092D2011092D1011092A30187
:10069000CF9108950F931F93CF938C01C62F0E9483
:1006A000E5026C2F6460C8010E94E5026C2F6B7F2D
:1006B000C8010E94E50283EC90E00197F1F7CF9129
:1006C0001F910F910895FF920F931F93CF93DF9384
:1006D0001F92CDB7DEB78C01F62E962F907F692F33
:1006E000642BC80149830E944A0380E1F89EB0014F
:1006F00011244981642BC8010F90DF91CF911F9184
:100700000F91FF900C944A0341E00E94630381E043
:1007100090E00895089580E090E008950E94960981
:100720001F920F920FB60F9211242F933F934F9366
:100730005F936F937F938F939F93AF93BF93EF9349
:10074000FF9385ED91E00E943B01FF91EF91BF91F6
:10075000AF919F918F917F916F915F914F913F9159
:100760002F910F900FBE0F901F9018951F920F9210
:100770000FB60F9211242F938F939F93EF93FF93B4
:10078000E091E501F091E6018081E091EB01F091CB
:10079000EC0182FD12C090818091EE018F5F8F731A
:1007A0002091EF01821751F0E091EE01F0E0EB5261
:1007B000FE4F958F8093EE0101C08081FF91EF91F4
:1007C0009F918F912F910F900FBE0F901F901895B2
:1007D0001F920F920FB60F9211242F933F938F9376
:1007E0009F93AF93BF938091C6019091C701A09151
:1007F000C801B091C9013091C50123E0230F2D3705
:1008000020F40196A11DB11D05C026E8230F029614
:10081000A11DB11D2093C5018093C6019093C7010E
:10082000A093C801B093C9018091CA019091CB01F6
:10083000A091CC01B091CD010196A11DB11D809375
:10084000CA019093CB01A093CC01B093CD01BF918D
:10085000AF919F918F913F912F910F900FBE0F906D
:100860001F9018951F920F920FB60F9211242F937D
:100870003F934F935F936F937F938F939F93AF9328
:10088000BF93EF93FF938091B900887F803609F47E
:100890009CC068F5883209F45BC090F4803109F49B
:1008A00054C038F4882309F4F6C0883009F44DC0E8
:1008B000F6C0883109F44CC0803209F45DC0EFC045
:1008C000803409F468C048F4803309F455C0883393
:1008D00009F0E5C08093A201D8C0803509F44FC06B
:1008E000883509F45DC0883409F0D9C0D6C088398C
:1008F00009F4C7C0A8F4883709F467C038F488360B
:1009000009F463C0803709F460C0C9C0883809F4AD
:10091000B8C0803909F45FC0803809F0C0C05BC03E
:10092000803B09F486C038F4803A09F466C0883AFE
:1009300009F47FC0B4C0803C09F4A7C0883C09F426
:10094000A4C0883B09F48AC0AAC080917F0110C06E
:100950009091A1018091A001981770F5E091A101FB
:1009600081E08E0F8093A101F0E0E058FE4F80817E
:100970008093BB0085EC86C08093A2018EC0E0917D
:10098000A10181E08E0F8093A1018091BB00F0E076
:10099000E058FE4F80839091A1018091A0016EC02C
:1009A000E091A10181E08E0F8093A1018091BB00B5
:1009B000F0E0E058FE4F80838091CF0181116DC03F
:1009C00081E08093CE0184EA61C083E08093D0010E
:1009D00010927E01CFCF80917E01803208F051C00D
:1009E000E0917E0181E08E0F80937E018091BB00BB
:1009F000F0E0E25AFE4F8083BDCF85EC8093BC00CF
:100A00001092D00180917E01803230F4E0917E011D
:100A1000F0E0E25AFE4F108260917E0170E0E091BA
:100A20005C01F0915D018EE591E0099510927E01E7
:100A300036C084E08093D00110925B0110925A017D
:100A4000E0915801F0915901099580915A01811165
:100A500005C081E080935A0110923801E0915B015A
:100A600081E08E0F80935B01F0E0E85CFE4F8081B7
:100A70008093BB0090915B0180915A01981708F414
:100A800079CF85E88093BC000AC085EC8093BC00D8
:100A90001092D00104C01092A2010E942E02FF9178
:100AA000EF91BF91AF919F918F917F916F915F91E6
:100AB0004F913F912F910F900FBE0F901F9018955F
:100AC0001092D8011092D70188EE93E0A0E0B0E038
:100AD0008093D9019093DA01A093DB01B093DC01FC
:100AE0002BE031E03093D6012093D50125EC30E0A6
:100AF0003093E2012093E10124EC30E03093E401F3
:100B00002093E30120EC30E03093E6012093E501EF
:100B100021EC30E03093E8012093E70122EC30E053
:100B20003093EA012093E90126EC30E03093EC01A8
:100B30002093EB011092EE011092EF011092F00160
:100B40001092F10110927502109274028093760255
:100B500090937702A0937802B09379028DE191E0AF
:100B60009093730280937202109287021092860211
:100B70008FE291E0909385028093840280E28093DB
:100B8000880280E180938D0282E080938E02109231
:100B90008F0210927F0210927E02109281021092B8
:100BA0008002109283021092820261E070E080E085
:100BB00090E00E94CC08009789F090937F02809388
:100BC0007E02109281021092800220918202309166
:100BD0008302232BC1F4FC01108215C080917E0298
:100BE00090917F02009711F00E94340810927F02CA
:100BF00010927E0210928302109282021092810261
:100C0000109280020895109283021092820267E38C
:100C100071E00C94A409789484B5826084BD84B595
:100C2000816084BD85B5826085BD85B5816085BDE7
:100C300080916E00816080936E001092810080919F
:100C40008100826080938100809181008160809327
:100C50008100809180008160809380008091B1004C
:100C600084608093B1008091B00081608093B00077
:100C700080917A00846080937A0080917A0082600B
:100C800080937A0080917A00816080937A008091CD
:100C90007A00806880937A001092C100E091E501AB
:100CA000F091E60182E08083E091E101F091E201C0
:100CB0001082E091E301F091E4018FEC80831092C7
:100CC000ED01E091E901F091EA0186E08083E09195
:100CD000E701F091E801808180618083E091E70184
:100CE000F091E801808188608083E091E701F091D4
:100CF000E801808180688083E091E701F091E8015C
:100D000080818F7D80831092D4011092D301109244
:100D1000D2011092D1011092D00181E08093CF01D5
:100D20001092CE0182E10E94830083E10E94830041
:100D30008091B9008E7F8093B9008091B9008D7F3A
:100D40008093B90088E48093B80085E48093BC0068
:100D50001092890280918E02823018F098E0909370
:100D6000890280938C0262E370E080E090E00E9450
:100D7000F40160918F0284E892E00E94E50268EE3F
:100D800073E080E090E00E94F40160E384E892E088
:100D90000E944A03CBE4D6E4CE010197F1F760E369
:100DA00084E892E00E944A032197F1F760E384E827
:100DB00092E00E944A0383E592E00197F1F760E236
:100DC00084E892E00E944A0360918902606240E0F8
:100DD00084E892E00E94630384E080938A0240E00A
:100DE0006CE084E892E00E94630340E061E084E804
:100DF00092E00E946303CBE3DFE1CE010197F1F7BC
:100E000082E080938B0240E066E084E892E00E94FA
:100E1000630340E062E084E892E00E94630321976C
:100E2000F1F7D8E00BE31FE185ED91E00E94250189
:100E3000892B69F062E070E080E090E00E94F401AC
:100E400085ED91E00E94030180930001EDCFC091F8
:100E50000001CD3671F140E061E884E892E00E9443
:100E60006303D0938F0260E084E892E00E94E50281
:100E7000E0918402F09185020190F081E02D6C2FC9
:100E800084E892E0099510928F0260E084E892E095
:100E90000E94E50268EE73E080E090E00E94F401B9
:100EA00040E061E084E892E00E946303C80101979A
:100EB000F1F70E94C501B8CF80917E0290917F0228
:100EC0000C9434082F923F924F925F926F927F92D0
:100ED0008F929F92AF92BF92CF92DF92EF92FF924A
:100EE0000F931F93CF93DF93CDB7DEB7CA1BDB0BF6
:100EF0000FB6F894DEBF0FBECDBF09942A8839889B
:100F000048885F846E847D848C849B84AA84B984A1
:100F1000C884DF80EE80FD800C811B81AA81B981AD
:100F2000CE0FD11D0FB6F894DEBF0FBECDBFED01C1
:100F30000895EE0FFF1F0590F491E02D0994CF93D3
:100F4000DF938230910510F482E090E0E09192020C
:100F5000F091930220E030E0C0E0D0E0309711F152
:100F60004081518148175907C0F04817590761F46B
:100F700082819381209719F09B838A832BC0909361
:100F800093028093920226C02115310519F0421771
:100F9000530718F49A01BE01DF01EF010280F381CB
:100FA000E02DDCCF2115310509F1281B390B243048
:100FB000310590F412968D919C91139761157105EE
:100FC00021F0FB019383828304C09093930280936A
:100FD0009202FD01329644C0FD01E20FF31F81939E
:100FE0009193225031092D933C933AC02091900265
:100FF00030919102232B41F420910301309104019F
:1010000030939102209390022091010130910201CE
:101010002115310541F42DB73EB74091050150919E
:101020000601241B350BE0919002F0919102E2172A
:10103000F307A0F42E1B3F0B2817390778F0AC01FB
:101040004E5F5F4F2417350748F04E0F5F1F5093D8
:101050009102409390028193919302C0E0E0F0E00E
:10106000CF01DF91CF9108950F931F93CF93DF931B
:10107000009709F48CC0FC01329713821282009110
:101080009202109193020115110581F420813181A2
:10109000820F931F209190023091910228173907F7
:1010A00079F5F0939102E093900271C0D80140E08D
:1010B00050E0AE17BF0750F412962D913C91139754
:1010C000AD012115310509F1D901F3CF9D01DA01F7
:1010D0003383228360817181860F971F8217930764
:1010E00069F4EC0128813981260F371F2E5F3F4FAD
:1010F000318320838A819B8193838283452B29F4CA
:10110000F0939302E093920242C01396FC93EE9305
:101110001297ED01499159919E01240F351FE21755
:10112000F30771F480819181840F951F02961196C7
:101130009C938E938281938113969C938E931297A6
:10114000E0E0F0E0D80112968D919C911397009702
:1011500019F0F8018C01F6CF8D919C9198012E5FCA
:101160003F4F820F931F20919002309191022817D8
:10117000390769F4309729F4109293021092920281
:1011800002C0138212821093910200939002DF91A9
:10119000CF911F910F910895A0E0B0E0E2EDF8E04B
:1011A0000C946607EC01009721F4CB010E949F0785
:1011B000B8C0FC01E60FF71F9C0122503109E2176D
:1011C000F30708F4ACC0D9010D911C9111970617D3
:1011D0001707B0F00530110508F49FC0C801049747
:1011E0008617970708F499C002501109061B170BC0
:1011F000019311936D937C93CF010E9434088DC0AD
:101200005B01A01AB10A4C01800E911EA0919202BE
:10121000B091930240E050E0E12CF12C109709F4DA
:101220004AC0A815B905D1F56D907C90119763015E
:1012300082E0C80ED11CCA14DB0480F1A3014A1954
:101240005B096A0182E0C80ED11C1296BC9012970D
:101250001396AC91B5E0CB16D10440F0B282A383D3
:1012600051834083D9016D937C930AC00E5F1F4F59
:10127000C301800F911FF90191838083EB2DFA2F19
:10128000E114F10431F0D7011396FC93EE93129719
:1012900044C0F0939302E09392023FC08D919C91E1
:1012A00011974817590708F4AC017D0112960D906B
:1012B000BC91A02DB3CF809190029091910288159E
:1012C0009905E1F446175707C8F480910101909100
:1012D0000201009741F48DB79EB7409105015091EE
:1012E0000601841B950BE817F907C8F4F0939102E7
:1012F000E0939002F901718360830FC0CB010E94DB
:101300009F077C01009759F0A801BE010E949B092C
:10131000CE010E943408C70104C0CE0102C080E0A3
:1013200090E0CDB7DEB7EEE00C94820781E090E06C
:10133000F8940C94AB09FB01DC0102C001900D9202
:1013400041505040D8F70895FB01DC0101900D9207
:101350000020E1F7089510E0C8E5D0E004C0FE01E8
:101360000E9499072196C935D107C9F7F894FFCF94
:101370006D000094028000000000005C01C900F4D0
:1013800000A30125010301170100000000B6028639
:10139000028B0360027E026F026102000000008483
:0813A00003C9008B038A03005E
:00000001FF
